:10051F00A1F9A1F9A1F9A1F9A1F9A1F9A1F9A1F9FC
:10052F000020202020BBB6D3ADCAB9D3C3202020D2
:10053F002000D5FDD4DAB3F5CABCBBAF4750532E5C
:10054F002E2E00A1EF00CAB100B7D600C3EB0020DA
:10055F002020200020202000BAA3B0CEA3BA202054
:10056F00202000C3D700323000C4EA00D4C200C834
:0B057F00D500CBD9B6C8A3BA202000DD
:0B05E100010A00C100C101C102C103FA
:10002600E4F5081206791207467F647E0012000383
:100036007F801206D17BFF7A05791F1207307F90E9
:100046001206D17BFF7A0579301207307F881206B7
:10005600D17BFF7A0579411207307F981206D17B52
:10006600FF7A05791F12073012070112069D300428
:1000760067E53464477061E536642C705BE53D6482
:100086002E7055F50874302508F8E6FF740025082B
:10009600F582E43400F583EFF00508E508B444E59D
:1000A600900007E075F00AA4FFA3E02F24F8F52AD4
:1000B600C39418400DE52A75F0188485F02AD201FC
:1000C6008002C201900009E0F523A3E0F52EA3E02B
:1000D600F521A3E0F52CD2023000030202612002D2
:1000E60003020261C2027F801206D17BFF7A057984
:1000F60052120730E52A75F00A842430FF1206E909
:10010600E52A75F00A84E5F02430FF1206E97BFF44
:100116007A057955120730AF231206E9AF2E12067B
:10012600E97BFF7A057958120730AF211206E9AF4D
:100136002C1206E97BFF7A05795B1207307BFF7A82
:100146000579521207307F901206D190001CE0FF0D
:100156001206E97F201206E9900011E0FF1206E977
:10016600900012E0FF1206E9900013E0FF1206E984
:10017600900014E0FF1206E9900015E0FF1206E970
:10018600900016E0FF1206E9900017E0FF1206E95C
:10019600900018E0FF1206E9900019E0FF1206E948
:1001A60090001AE0FF1206E97BFF7A05795E1207D6
:1001B600307F881206D190002AE0FF1206E97F20E0
:1001C6001206E990001EE0FF1206E990001FE0FF0C
:1001D6001206E9900020E0FF1206E9900021E0FFF8
:1001E6001206E9900022E0FF1206E9900023E0FFE4
:1001F6001206E9900024E0FF1206E9900025E0FFD0
:100206001206E9900026E0FF1206E9900027E0FFBB
:100216001206E9900028E0FF1206E97BFF7A0579CD
:10022600631207307F981206D17BFF7A0579671231
:100236000730900036E0FF1206E9900037E0FF1223
:1002460006E9900038E0FF1206E9900039E0FF1257
:1002560006E97BFF7A057972120730300455E534DA
:10026600644D704FE564642C7049E56B642C7043F3
:10027600F50874302508F8E6FF74442508F582E48D
:100286003400F583EFF00508E508B444E590007DF9
:10029600E0F575A3E0F52B90007BE0F574A3E0F59F
:1002A60028900079E0F522A3E0F52D300103120332
:1002B60055D203200003020071200303020071C21D
:1002C600037F801206D17BFF7A057975120730AF5E
:1002D600751206E9AF2B1206E97BFF7A05797812CB
:1002E6000730AF741206E9AF281206E97BFF7A05DC
:1002F600797B120730AF221206E9AF2D1206E97B91
:10030600FF7A05797E1207307F901206D17BFF7A3D
:100316000579811207307F201206E9900072E0FF0E
:100326001206E9900073E0FF1206E9900074E0FF00
:100336001206E9900075E0FF1206E9900076E0FFEC
:0F0346001206E97BFF7A05797212073002007107
:10035500E52275F00AA4252D24F1F529E57424D0AC
:1003650075F00AA4FFE52824D02FF524AF757E008B
:100375007C007D0A1204B8EF24F0FFEE3405FEE59B
:100385002B24D0FDEC34FFCD2FF526ED3EF525AD24
:1003950026FCAF2412058A8F2FE529D3952F40140B
:1003A5007529010524E524D3940C40080526E52686
:1003B50070020525E52975F00A842430F522E52922
:1003C50075F00A84E5F02430F52DE52475F00A84EE
:1003D5002430F574E52475F00A84E5F02430F52819
:1003E500AE25AF267C007D641204CA7E007F0ACF4D
:1003F500CDCFCECCCE1204CAEF2430F575AE25AFE5
:0E040500267C007D0A1204CAED2430F52B225D
:10058A00EF14B40C00504D90059F75F003A4C58379
:10059A0025F0C583730205C30205C80205C3020517
:1005AA00DB0205C30205DB0205C30205C30205DB44
:1005BA000205C30205DB0205C375091F8016AF05D4
:1005CA00AE0412065250047F1D80027F1C8F0980E0
:0605DA000375091EAF09C4
:0105E00022F8
:10065200AB07AA06EB5403700AFC7D641204CAEDD0
:100662004C700FAE02AF037C017D901204CAED4CB8
:070672007003D38001C322D5
:10069D0020B6177F0A7E0012000320B60D30B6FD7E
:0B06AD00750A04B2007F011206D12282
:10000300E4FDFCC3ED9FEC9E5015E4FBFA0BBB0033
:0F001300010AEB647B4A70F50DBD00010C80E41F
:0100220022BB
:100719007580FFC2A7D2A6D2A5E58020E7FBC2A5B6
:06072900E4FF0FBF05FC18
:01072F0022A7
:1006D100AE07120719C2A7C2A68E80D2A5000000DC
:0806E1000000000000C2A52288
:10075A00C2A7C2A68F80D2A5000000000000000038
:03076A00C2A52203
:1006E900AE07120719D2A7C2A68E80D2A5000000B4
:0806F9000000000000C2A52270
:1007300012049FFFD39400400C1206E9740129F9BA
:06074000E43AFA80EB220E
:0706B8007F3012075A7F0A90
:1006BF00AD071FED600BE4FEEEC3947D50F20E808C
:0106CF00F733
:0106D0002207
:100679007F641206BF1206B81206B87F0C1206BABA
:100689007F0112075A7F1E1206BF7F0612075A7F83
:040699001E0206BF78
:100746007F301206D17F0A1206BF7F301206D17F94
:040756000A0206BFCE
:1005EC00012700012A00012300012E000121000136
:1005FC002C00012400012900017400012800012DA8
:10060C0000012200017500012B0002250000C1042D
:03061C00012F00AB
:10070100759850D29CE4F587758920758DFD758BA0
:08071100FDD28ED2AFD2AC2262
:03002300020620B2
:07062000C0E0C0D075D01846
:10062700E4C2ACAF99C298BF2404F527C204AE2731
:10063700052774302EF8A61FE527C3943B400575A0
:06064700273BD204D2ACF7
:05064D00D0D0D0E03226
:03000000020413E4
:0C041300787FE4F6D8FD75817502045A6C
:10049F00BB010689828A83E0225002E722BBFE025B
:0904AF00E32289828A83E493228E
:1004B800EF8DF0A4A8F0CF8CF0A428CE8DF0A42E58
:0204C800FE2212
:1004CA00BC000BBE0029EF8DF084FFADF022E4CC16
:1004DA00F875F008EF2FFFEE33FEEC33FCEE9DECDF
:1004EA00984005FCEE9DFE0FD5F0E9E4CEFD22ED25
:1004FA00F8F5F0EE8420D21CFEADF075F008EF2F6F
:10050A00FFED33FD4007985006D5F0F222C398FD5F
:05051A000FD5F0EA22FC
:10041F00020026E493A3F8E493A34003F68001F2CD
:10042F0008DFF48029E493A3F85407240CC8C333DE
:10043F00C4540F4420C8834004F456800146F6DFAD
:10044F00E4800B01020408102040809005E1E47E57
:10045F00019360BCA3FF543F30E509541FFEE493A2
:10046F00A360010ECF54C025E060A840B8E493A369
:10047F00FAE493A3F8E493A3C8C582C8CAC583CA94
:10048F00F0A3C8C582C8CAC583CADFE9DEE780BE4C
:01061F0000DA
:00000001FF
